:020000040800F2
:10000000D88C0020B9C000080F1801085B0F010848
:100010000D18010839D200082D3B0108000000002E
:1000200000000000000000000000000001C0000807
:1000300093D600080000000055C000082D1C0108E0
:10004000D3C00008D3C00008D3C00008D3C0000844
:10005000D3C00008D3C0000895D60008D3C000085C
:10006000A3D60008A9D60008AFD60008D3C0000860
:10007000D3C00008D9D20008D3C00008E5D20008D8
:10008000D3C00008D3C00008A9D10008D3C000081D
:10009000D3C00008D3C00008D3C00008D3C00008F4
:1000A000D3C00008D3C00008D3C00008D3C00008E4
:1000B000D3C00008D3C00008D3C00008D3C00008D4
:1000C000D3C00008D3C00008D3C00008D3C00008C4
:1000D000D3C00008D3C00008D3C00008D3C00008B4
:1000E0009BD60008D3C00008D3C00008D3C00008C6
:1000F000D3C00008391D0108D3C00008D3C00008D0
:10010000D3C00008D3C000082D1D0108D3C00008CB
:10011000A91F0108D3C00008D3C00008D3C000083D
:10012000D3C00008D3C00008D3C00008D3C0000863
:10013000D3C00008D3C00008D3C00008D3C0000853
:10014000D3C00008D3C00008D3C000083518010888
:10015000D3C00008D3C00008D3C00008D3C0000833
:10016000D3C00008D3C00008D3C00008D3C0000823
:10017000D3C00008D3C00008D3C00008D3C0000813
:10018000D3C00008D3C00008DFF810D000F008F892
:1001900000480047F1560108AFF30080D88C0020DA
:1001A000064C074D06E0E06840F0010394E80700C4
:1001B00098471034AC42F6D3FFF7EAFFE401000899
:1001C0000402000802E008C8121F08C1002AFAD180
:1001D00070477047002001E001C1121F002AFBD1C7
:1001E000704700000402000800000020E80500003D
:1001F00050D10008F0030008E8050020F086000058
:10020000D401000801311324F41345D21B083F0424
:100210001A3B041A6904180AED2701081D28010871
:1002200029041A45041A65041ACD141AF90417048E
:1002300003090412011402020216400912310D369C
:1002400002010203012904D107104041D7A3F03E67
:100250009A02214152121EFA44CDCC4C2C480A1667
:10026000436F12833A9A99193864409C462320417F
:100270002A8030500A41178D0C38C74BB73D19748E
:10028000135C072C20E813020314D02713C00612B6
:10029000201404024032101A0808023E2065FFFFB5
:1002A000F9441AC89401247AF02819AF111ADCB065
:1002B000290829D423A00F6DC1FEFFFF1C05220AC7
:1002C000D7A33C13FA44242474495A7A88A1754868
:1002D0008A483B1A3F6022421AA00401481A8054FF
:1002E0002904615A03B43142405A0A9C1DCDCC4CBA
:1002F0003E8A2A42CC1C9A99190C2922639C461BDF
:100300002041442930500A41178D0C38C74BB73D66
:100310001949139C082C20E813020314D02713C09A
:100320000612201404024032101A08083976013AE5
:1003300065FFFFF9441AC89401247AA02832021AF2
:100340001CB019B739D41BA00F1E71291429FC0148
:100350002A5A7A88A165FA61843A1A207423C8431C
:100360001A480401484B803F0401721AAA01012473
:10037000130A063202334001140902431302012515
:10038000C03209041B01020B1305241610010524B9
:100390000110090104240202052406170107058241
:1003A0000308151009040133020A1D070501024361
:1003B0002C070581070938442A40072A8107112B99
:1003C0000907440A2204440A16FF441EC5250108F1
:1003D0003104458D2601081A6D0C1EDD240108012B
:1003E00008C11AAD101AA1041AB904DA951C8100CB
:020000040800F2
:10C000002A4B19680868B0E8F04F80F30988BFF33D
:10C010006F8F4FF0000080F3118870470000000020
:10C0200006480068006880F3088862B661B6BFF30E
:10C030004F8FBFF36F8F00DF00BF00BF08ED00E040
:10C04000DFF80C00016841F470010160704700BF27
:10C0500088ED00E0EFF30980BFF36F8F134B1A6890
:10C060001EF0100F08BF20ED108A20E9F04F10607D
:10C0700008B44FF0500080F31188BFF34F8FBFF327
:10C080006F8F0CF0ADFD4FF0000080F3118808BCFD
:10C0900019680868B0E8F04F1EF0100F08BFB0EC48
:10C0A000108A80F30988BFF36F8F70475C0400200B
:10C0B000EFF30580704700000648804706480047B8
:10C0C000FEE7FEE7FEE7FEE7FEE7FEE7FEE7FEE748
:10C0D000FEE7FEE7D51C0108890100082DE9F05FA5
:10C0E0000546002092469B468846064681464024E7
:10C0F0001BE0284641464746224600F00EFC5346C8
:10C100005A46C01A914110D311461846224600F0F3
:10C11000F5FB2D1A67EB01084F462246012000214E
:10C1200000F0ECFB17EB00094E41201EA4F10104C6
:10C13000DFDC484631462A464346BDE8F09F40EAE8
:10C1400001039B0703D009E008C9121F08C0042A95
:10C15000FAD203E011F8013B00F8013B521EF9D27C
:10C16000704710B5002200E0521C835C8C5CA34237
:10C1700001D1002BF8D1D8B2E1B2401A10BD0000B5
:10C1800070B50F4D00B92868002412E00A4602E09D
:10C190009E4203D0521C1378002BF9D1DAB222430D
:10C1A00005D02BB124B1002100F8011B04E00446A6
:10C1B000401C0678002EE9D12860204670BD0000A2
:10C1C000DC0500200FB400B58DB010A909900B90CC
:10C1D00000914FF0FF300A9000200C900548069027
:10C1E000054807906A4609A80F9900F0BBFB0DB0FF
:10C1F0005DF814FB81C900089FC900082DE9FF5FA5
:10C200001D464FF0FF3BD5E9014691465F464FF092
:10C210000008A9697F1C01988847296A82468847D7
:10C220000028F6D1BAF1FF3F0CD024F4C064002EF0
:10C2300019DD600614D5BAF12B0F09D0BAF12D0F14
:10C240000ED103E0584604B0BDE8F09F44F480648A
:10C25000A9697F1C01988847761E8246002E02DD60
:10C26000BAF1300F03D0B9F1000F26D032E0A9693E
:10C27000761E44F400747F1C019888478246002E85
:10C2800005DDBAF1780F06D0BAF1580F03D0B9F135
:10C29000000F10D01EE0B9F1000F02D0B9F1100F5D
:10C2A00018D1A969761E24F400747F1C0198884770
:10C2B0008246102002E0082000E00A20814609E0C2
:10C2C00008FB0908A969761E44F400747F1C0198D4
:10C2D00088478246002E05DD4946504600F02DFB7A
:10C2E0000028EDDAE96901988847A00502D46FF0CB
:10C2F0000100A8E7E00725D1600613D5600502D547
:10C30000C8F1000000E0404629680A1D2A6009685B
:10C31000220501D5087015E0220701D5088011E03B
:10C3200008600FE02868011D29600068210502D51A
:10C3300080F8008006E0210702D5A0F8008001E027
:10C34000C0F8008038467EE72DE9FF5FD2E901A7FB
:10C350004FF00008916999461446DDF838B046461A
:10C3600001988847054659EA0B0005D009E0A16904
:10C37000761C019888470546216A28468847002888
:10C38000F5D1681C03D05FEACA7005D015E04FF004
:10C39000FF3004B0BDE8F09F2068011D2160D0F897
:10C3A00000800AE05FEACA7001D108F8015BA16968
:10C3B000761C7F1E019888470546002F1ADD681CF1
:10C3C00018D0B9F1000F0DD0E81705EBD06042117D
:10C3D00020F01F0059F822102A1A01209040014233
:10C3E000E0D107E0BBF1000FDCD1216A2846884785
:10C3F0000028D7D0E16901988847BBF1000F07D129
:10C40000002E05DD5FEACA7002D1002188F8001015
:10C41000A068B84203DDBBF1000F03D017B16FF085
:10C420000100B6E73046B4E72DE9FF4F087883B046
:10C430009946FF2805D0491C2D2804D0002400204F
:10C4400008E000200BE00124F9E700EB800003EB9B
:10C450004000491C0B78FF2BF7D104B14042002368
:10C460000293147819461D462D2C01D02B2C04D193
:10C47000521C2D2C13D000240294AA461478FF2CB1
:10C480000FD00A25A3FB057801FB05814FF0000CB6
:10C4900003FB0C11521CE3194AEB0101EEE70124E6
:10C4A000EAE7814453EA010002D019F5C87F06DAB1
:10C4B00003980021C0E9001107B0BDE8F08F002506
:10C4C000AE4E2F46DFF8B882184600F0ECFBCDE9FF
:10C4D0000001B9F1000002DAC9F1000400E00446ED
:10C4E0000023A74A1AEB030B42EB045A12E0E007C1
:10C4F00007D02A4633463846414600F045F90746FC
:10C5000088462A4633461046194600F03DF905464E
:10C510000E466410002CEAD1DDE90001B9F1000FEC
:10C520005A46534606DA00F04FFB3A46434600F0BF
:10C530004BFB05E000F028F93A46434600F024F9A9
:10C54000029A0AB181F00041039AC2E90001B3E7FF
:10C550002DE9FF4F1F468DB0D7E901464FF0FF3858
:10C560002E2045464FF000090B90B9696D1C0E98BE
:10C570008847396A824688470028F6D1BAF1FF3FDA
:10C580000AD024F4D064002E11DDBAF12B0F08D0AC
:10C59000BAF12D0F0BD102E0404611B08DE744F403
:10C5A0008064B9696D1C0E9888478246761E69467C
:10C5B000600501D52D2000E02B208DF8000001F151
:10C5C000010B0DF1200809E0B9696D1C0E98884730
:10C5D00082460F9844F40074761E0560002E02DD3A
:10C5E000BAF1300FF0D00B998A453ED144F0800467
:10C5F00006E00F99681CA9F1010944F40074086071
:10C60000B9696D1C761E0E98884782463028F0D096
:10C610002BE00B998A4505D1200603D444F0800411
:10C62000761E18E0504607F09DFB08B30DF113018C
:10C63000761E44F400748B4508D2AAF130000BF842
:10C64000010B200607D5A9F1010003E0200602D462
:10C6500009F101008146A00502D50F99681C086008
:10C66000B9696D1C0E9888478246002ED1DC53E0D4
:10C67000002E51DDBAF1650F02D0BAF1450F4BD152
:10C68000A00549D5B9696D1C24F44074761E0E9836
:10C6900088478246002E0CDD2B2804D0BAF12D0FDE
:10C6A00007D144F48074B9696D1C0E98884782469E
:10C6B000761EE00501D52D2100E02B2108F8011B95
:10C6C000CDF82C8021E00DF12901761E44F4007490
:10C6D00088450CD2AAF1300010F0FF0088F8000065
:10C6E00002D10B99884509D908F1010806E0E00557
:10C6F00001D5244801E042F20F708146B9696D1CF2
:10C700000E98884782460F980560002E04DD50463B
:10C7100007F028FB0028D6D1F9690E988847FF203A
:10C720008BF8000088F800000020069007904B4628
:10C730006A4608A906A8FFF777FEA00502D46FF0A5
:10C7400001002AE714F0240F0AD0E00714D1DDE934
:10C7500006123868031D3B600068C0E900120BE058
:10C76000DDE9060100F0DCFA0146E00704D1386893
:10C77000021D3A600068016028460EE70000144080
:10C780000000F03FF1D8FFFF2DE9FE4F81EA0304DE
:10C7900004F0004421F0004100944FF0000B23F01E
:10C7A000004350EA01045ED052EA03045BD0C3F3B5
:10C7B0000A54C1F30A552C44A4F2F3340194A0FBAB
:10C7C0000254C1F3130141F48011C3F3130343F482
:10C7D000801301FB024400FB034E840A970A44EADB
:10C7E000815447EA8357A4FB076802958D0A05FB2D
:10C7F00007854FEA932C04FB0C542705029D4FEA52
:10C80000065847EA1637B5EB08056EEB070C870E9E
:10C81000920E47EA811742EA8312A7FB0201B6EBA8
:10C820000B0164EB00042B0D43EA0C335E1844EB60
:10C830001C50DA465146E7FB0201C5F313044FEAE8
:10C840000B3343EA14534FEA0432019C43EA0603D4
:10C85000A4F10C040294009CCDE900B400F0BFF8F0
:10C8600003B0BDE8F08F00200146F9E770B5C1F3D1
:10C870000A5201F000450024C1F3130140F2FF33D6
:10C8800041F480119A4201DA002070BD40F2334336
:10C890009A42A2F2334203DC524200F03EF800E03A
:10C8A00090402C43F1D0404270BD00F0004230F087
:10C8B00000400AD0C10D01F56071C0F3160042EAD4
:10C8C0000151C208400711437047002001467047DC
:10C8D00030B50B46014600202022012409E021FA50
:10C8E00002F59D4205D303FA02F5491B04FA02F54D
:10C8F0002844151EA2F10102F1DC30BD202A04DB20
:10C90000203A00FA02F1002070479140C2F1200362
:10C9100020FA03F3194390407047202A04DB203AA1
:10C9200021FA02F00021704721FA02F3D040C2F14F
:10C93000200291400843194670473A2800D2303807
:10C9400020F02002412A01D3A2F13700884201D30E
:10C950004FF0FF3070470000026811441378016007
:10C9600018467047D16004495161044911620021A1
:10C970001161114600F008BA59C900087DCD0008C0
:10C98000426842B1016811F8013B23B1521EC0E96F
:10C990000012184670470121C160881E7047426826
:10C9A0005AB1C368016843B983688B4205D0491EF8
:10C9B000521CC0E90012002070474FF0FF30704752
:10C9C00010B5141E73F1000408DA401C41F1000197
:10C9D00092185B411A4301D120F0010010BD2DE9EE
:10C9E000F04D92469B4611B1B1FA81F202E0B0FAE5
:10C9F00080F220329046FFF781FF04460F4640EA5E
:10CA00000A0041EA0B0153465A46084313D0114627
:10CA100053EA010019D0C8F140025046FFF77DFFEC
:10CA200005460E46504659464246FFF767FF084303
:10CA300005D0012004E020463946BDE8F08D0020F5
:10CA4000054346EAE0762C4337430A986305E40A37
:10CA5000A0EB08000022FD0A44EA47540A3002D540
:10CA600000200146E9E7010510196941DDE90845A3
:10CA700000196941BDE8F04DA2E72DE9FE4F80465F
:10CA800081EA0300C00F0C46009021F0004123F022
:10CA90000045B8EB0200A94105D240462146904628
:10CAA0001C460B46024623F00040104347D0270D9A
:10CAB000C7F30A00C3F30A510290401A01904028BC
:10CAC0006BDAC3F3130040F4801B0098924620B148
:10CAD0000023D2EB030A63EB0B0B01985946C0F11C
:10CAE00040025046FFF70AFF06460D46504659469B
:10CAF000019A00F031F910EB08006141002487EA47
:10CB0000115284EAE7731A4340D0009A62B3019A43
:10CB1000012A4FEA075215DC001B61EB02014FF0BE
:10CB2000004202EA0752CDE90042001C41F58011A3
:10CB300032462B46FFF753FF03B0BDE8F08F404667
:10CB40002146F9E7001B61EB0201001C41F580134F
:10CB500000185B412018A2F5001747EB030140EADB
:10CB6000D570B6196D4111E06D084FEA360645EAF9
:10CB7000C0754FEA0752001B61EB0201001C41F532
:10CB8000801149084FEA30000019514132462B46C6
:10CB900003B0BDE8F04FFFF713BF0098012240003B
:10CBA0000023D0EB020263EBE073009821464FEACA
:10CBB000E074B8EB000061EB0401E9E783F00043A7
:10CBC0005BE781F0004158E72DE9F04D81EA03046D
:10CBD00004F0004B21F0004514464FF0000A23F00A
:10CBE000004150EA050220D054EA01021DD0C5F3ED
:10CBF0000A570246C5F31303C1F31300C1F30A56E3
:10CC000040F4801543F48013A7EB0608101BD646AA
:10CC100008F2FD3873EB050002D308F1010801E0CA
:10CC200092185B41B8F1000F03DA00200146BDE81D
:10CC3000F08D00204FF48011064684460EE0171B4D
:10CC400073EB050705D3121B63EB050306434CEAA0
:10CC5000010C49084FEA300092185B4150EA010785
:10CC6000EDD152EA030012D082EA040083EA050102
:10CC7000084305D0101BAB4106D20122002306E079
:10CC800000224FF0004302E06FF0010253101AEB54
:10CC900006004CEB085110EB0A0041EB0B01BDE81C
:10CCA000F04DFFF78DBE0EB540F2334202920022E6
:10CCB000CDE900221346FFF792FE03B000BDC1F399
:10CCC0000A52C1F3130140F2FF3341F480119A423A
:10CCD00002DA00200146704740F233439A42A2F242
:10CCE000334202DC5242FFF718BEFFF707BE0000D6
:10CCF00030B5041E71F1000404DB4FF000444042E3
:10CD000064EB0101141E73F1000405DB1C464FF0B7
:10CD10000043524263EB0403994208BF904230BD86
:10CD200001F0004330B421F0004150EA010206D086
:10CD30000A0DA2F56072C1F31301002A02DC30BCB7
:10CD400000207047440F44EAC104C100E01830BC21
:10CD500000EBC25000F0B0B9202A06DBCB17203A16
:10CD600041FA02F043EAE07306E041FA02F3D040F0
:10CD7000C2F120029140084319467047C0B24FF4F7
:10CD8000F05100F0D1B900002DE9F34F8BB04FF016
:10CD9000000801F10C000C464FF0010B46460DF166
:10CDA000080A01906269012101989047051E2DD063
:10CDB000252D2CD0216A8847C0B1626901210198D4
:10CDC0009047216A88470028F7D1411E626901987F
:10CDD000904700E0761CA1690B988847216A884734
:10CDE0000028F7D1E1690B988847DBE7A1690B9828
:10CDF00088470746A84201D1761CD3E7E1690B9822
:10CE000088477F1C02D1B8F1000F6FD047E100279F
:10CE100062693D463946019890472A2804D16269E3
:10CE20000121019890470125DFF88892626901216C
:10CE300001989047A0F130010A290AD24F45E5DC5C
:10CE400007EB870100EB4107303FDFD445F01005C9
:10CE5000ECE7E90601D46FF000476C280AD04C28B3
:10CE600014D0682815D06A280DD074281CD07A28D0
:10CE70001AD01DE062690121019890476C2802D008
:10CE800045F0040514E045F002050DE045F02005ED
:10CE90000AE06269012101989047682802D045F0B4
:10CEA000080505E045F40065626901210198904795
:10CEB000C4E9015765283DD019DC58287AD00CDC2C
:10CEC000452837D004DC252826D0412831D131E04F
:10CED00046282FD047282CD12CE05B2877D061281A
:10CEE00028D063287CD0642823D15AE0D1E06F2871
:10CEF00048D008DC66281DD067281BD0692821D0BF
:10CF00006E2816D127E0702845D0732868D0752880
:10CF100047D078280DD14DE0A1690B988847054688
:10CF200025283FF469AFE1690B9888476D1C3FF4F1
:10CF30006AAFB4E023466A466FF001000B99FFF731
:10CF400007FB9FE045F040006060A80723464FF0D4
:10CF5000000236D43EE0E8077FF447AF2068011DA9
:10CF600021600068290501D506701BE7290701D556
:10CF7000068017E7A90703D5F117C0E9006111E79B
:10CF800006600FE745F040006060A80723464FF0B9
:10CF9000080216D41EE040F60E0125EA010060608A
:10CFA00016E045F040006060A80723464FF00A02F3
:10CFB00007D40FE045F040006060A80708D523467D
:10CFC00010226FF001000B99AFF300805AE007E0E8
:10CFD000234610226FF001000B99FFF70FF951E083
:10CFE0004FF000094F464B46632802D05B2807D01C
:10CFF00041E02079C00601D40120A06001273AE079
:10D0000062690121019890475E2805D14FF001091E
:10D010006269494601989047216939B900210A4659
:10D02000534643F82120491C0829FADBB0B3216993
:10D0300069B9C11700EBD16253110AEB830122F0E9
:10D040001F02821A01200B68904003430B60626943
:10D050000121019890475D28E8D1B9F1000F09D06E
:10D060000020514651F82020D24341F82020401C96
:10D070000828F7DB02AB224600976FF001000B99FE
:10D08000FFF762F900280CDA401C08D1BBF1000F51
:10D0900005D04FF0FF300DB0BDE8F08FFFE7404600
:10D0A000F9E7E90701D108F1010806444FF0000B48
:10D0B00078E60000CCCCCC0C0029A8BF7047401CFF
:10D0C000490008BF20F00100704710B4B0FA80FC9E
:10D0D00000FA0CF050EA010404BF10BC704749B1DB
:10D0E000CCF1200421FA04F411FA0CF118BF01214B
:10D0F00021430843A3EB0C01CB1D4FEA00614FEA2B
:10D10000102042BF002010BC704700EBC3501044F9
:10D110000029A4BF10BC7047401C490008BF20F084
:10D12000010010BC704700007F2801D9002208E0F0
:10D13000064A02EB5002C007127800D1120902F031
:10D140000F02012090400840704700009CA6010893
:10D1500070B58C1810F8015B15F0070301D110F8B9
:10D16000013B2A1106D110F8012B03E010F8016BE6
:10D1700001F8016B5B1EF9D12B0705D40023521E69
:10D180000DD401F8013BFAE710F8013BCB1A921CD1
:10D1900003E013F8015B01F8015B521EF9D5A142CF
:10D1A000D8D3002070BD000010B50849084800F031
:10D1B00019F80849084800F015F80649074800F032
:10D1C00011F807480168491C016010BD3D8C010839
:10D1D000E805002051630108300600207806002091
:10D1E0002C00002070B5044600680D4601684068B8
:10D1F000C1F38001C0F3C010002918BF002807D078
:10D200004FF001012046A84721686FF00C0008602C
:10D21000206801684068C1F34001C0F34010002954
:10D2200014BF002870BD4FF000012046A8472168B8
:10D230006FF01200086070BDFEE70020704700200C
:10D240007047000010B500220449054805F015FAA2
:10D250000449034805F00BFA002010BD500C0020D3
:10D26000EC090020100C002010B509684A1C402A67
:10D2700034BF491C40210022431803F8012C09F057
:10D280004DFA0348006808F017FD002010BD0000AB
:10D2900008000020402984BF0220704710B50C46CA
:10D2A0000B49D1F81812D1F8141200291CBF012023
:10D2B00010BD224601460748FEF741FF22460549B8
:10D2C000034805F0DAF9BDE81040014805F01ABA44
:10D2D000EC090020500C0020014800F007BE0000BF
:10D2E00024090020014800F001BE00008809002048
:10D2F00010B5044601894068012201F024F90A2092
:10D3000008F0BAFC0021204600F08BF810F4806F82
:10D31000F8D1BDE81040012008F0AEBC70B5002483
:10D320000646214600F07DF805464FF40061304680
:10D3300000F077F8094915F4806F08800CD06C056F
:10D34000640D09D14FF40061304600F06AF810F026
:10D35000800F18BF4FF48064204670BDD4050020B4
:10D3600070B5054691F835000C46002808BF70BD21
:10D370000021284600F055F8C0F380212170C0F349
:10D3800040216170C0F30021A170C0F3C011E170B1
:10D39000C0F380112171C0F340116171C0F300111D
:10D3A000A171C0F3C001E171C0F380012172C0F32B
:10D3B0004001617200F00100A0724FF40061284644
:10D3C00000F02FF8C0F3C011217300F00F00E081CE
:10D3D0004FF48051284600F024F800F00301216149
:10D3E00000F00401616100F00801A16100F030016A
:10D3F00000F4F860C4E907104FF4C051284600F06B
:10D4000010F800F00301616200F00C01A16200F06D
:10D41000300100F04000C4E90B10002084F8350012
:10D4200070BD30B50D460446018A85B0C068002243
:10D4300001F089F8012008F01FFC0020ADF8080079
:10D4400045F40040ADF80C004BF6EF60ADF8040079
:10D450004FF47A73012203A9206802F065FA218A49
:10D460000122E06801F06FF8012008F005FC218A34
:10D470000022E06801F067F8012008F0FDFB4FF49E
:10D480007A700090012301AA02A9206802F011FB22
:10D49000012008F0F1FB218A0122E06801F053F835
:10D4A000012008F0E9FBBDF8040005B0C0F30A0054
:10D4B00030BD000070B5054600F1740600F1880427
:10D4C0003046FFF715FF2146304600F035F81020B2
:10D4D000E0614FF4A86020620820DFED140AA0622A
:10D4E000C5ED320A95ED311A9FED110A61EE200A61
:10D4F00021EE000A9FED0F1A60EE810AB4EEE00AF9
:10D50000F1EE10FA28BFB0EE600A85ED3D0A012564
:10D5100084F834502146304600F06FF884F83550D6
:10D5200021463046BDE87040FFF71ABFCDCCCC3C59
:10D53000713D8A3EEB51B83F70B50026054681F833
:10D5400034600C4681F83560012008F095FB3146C7
:10D550002846FFF766FFC0F380212170C0F3402109
:10D560006170C0F30021A170C0F3C011E170C0F37D
:10D5700080112171C0F340116171C0F30011A171DC
:10D58000C0F3C001E171C0F380012172C0F340011A
:10D59000617200F00100A0724FF400612846FFF7AD
:10D5A00040FFC0F3C011217300F00F00E0814FF481
:10D5B00080512846FFF735FF00F00301216100F09C
:10D5C0000401616100F00801A16100F0300100F484
:10D5D000F860C4E907104FF4C0512846FFF721FF57
:10D5E00000F00301616200F00C01A16200F0300163
:10D5F00000F04000C4E90B1070BD70B5054691F80D
:10D6000034000C46002808BF70BD4FF48051208ABA
:10D61000A28AA38B1043228B1A431043228C1043FF
:10D6200082B2284600F011F8A08C228D238E104380
:10D63000A28D4FF4C0511A43104382B2284600F025
:10D6400004F8002084F8340070BDF8B50D46164685
:10D650000446018AC068002200F075FF012008F02E
:10D660000BFBC6F30A002843ADF800004FF47A73B1
:10D6700001226946206802F057F9012008F0FCFAFF
:10D68000218A0122E06800F05EFF012008F0F4FA30
:10D69000F8BD7047012000F033BE4FF4004000F0A9
:10D6A0002FBE042000F02CBE082000F029BE102060
:10D6B00000F026BE0000000070B505462DED0E8B73
:10D6C000B0EE60CAF0EE40CA00F1CC0480ED3BCA77
:10D6D00090ED190A90ED1A1AF1EE400A30EE410A67
:10D6E00030EEC1AADFED6C0AD0F8000160EE20AA8E
:10D6F000DFED6A8A002814BF022895ED498A05D01B
:10D7000001280CBF95ED4E8AB0EE688AB0EE480A4B
:10D7100006F0BEFEF0EE409AB0EE480A06F0F4FEC7
:10D7200069EE8ABA29EEAABAB0EE409A49EE2ABA50
:10D7300009EE4ABA84ED09BA3CEEEBDAC4ED0BBA55
:10D740007CEE4BCA94ED010A9FED55EA554EF7EE7B
:10D75000001A6CEE8E0A60EE200AFDEEE00A10EE72
:10D76000900A3081D4ED03DAD4ED040A96ED04CAB0
:10D77000B0EE6D1A4CEE800A0DEE001A81EE8C0AA6
:10D7800020EE01AA20EE208A2AEE0A0A08EE080AF4
:10D79000F1EEC00A9FED440AC0EE20AA1AEE900AEC
:10D7A000FFF783F89FED421B53EC112BFEF7ECFFC4
:10D7B000FFF75CF8F0811AEE900AFFF776F89FED1C
:10D7C0003E1B53EC112BFEF7DFFFFFF74FF8B08144
:10D7D0001AEE900AB0F17E5F13DBD4ED020A9FEDE2
:10D7E000380A2DEE001A2CEE800A40EE81DAC4EDE4
:10D7F00003DAD4ED040A94ED021A41EE000AC4EDF6
:10D80000040A94ED040A69EE880A20EE0E0A49EE35
:10D810000A0ABDEEC00A10EE100A2AEE2B0A708129
:10D82000284608EE0B0A84ED050A29EE8A0A09EE5D
:10D83000480A2CEE001A84ED061A2CEE201A84ED0C
:10D84000071A08F065FE0A21284607F03BF8A5F8FC
:10D850006000B5F85E1088423CBF0020194905D32E
:10D860000B2028610020BDEC0E8B70BDC0EBC00208
:10D87000C2EB801201EBC202401C92ED380A022872
:10D8800070EE288AF2D3B1EE680A08F005FFBDEC0D
:10D890000E8B012070BD00003ACD133F0000000048
:10D8A0000000C84278000020AC5C313F000000005E
:10D8B00000000000000024400000000000408F40F5
:10D8C0005674FE389C000020C26BDFF8D4C1012AD8
:10D8D00004BF0220704730B40122C2630A680724E3
:10D8E0000368092A13D9DD680A3A02EB420204FAF6
:10D8F00002F225EA0202DA600A788B680A3A02EB41
:10D90000420293400268D4682343D36010E01D694B
:10D9100002EB420204FA02F225EA02021A610A78D4
:10D920008B6802EB4202934002681469234313613F
:10D930000268936B23F4401393630268936B0C8A21
:10D94000584D05EB0454234393630A790B7CD21A98
:10D95000D21C02EB82021F2393400268946B24EADC
:10D96000030393630A790B7CD21A0B88D21C02EB57
:10D9700082029BB293400268946B23439363CA690B
:10D9800062450268936823F4702393600268936889
:10D9900008BF23F440130FD0D1F81CC043EA0C0396
:10D9A00093600268936823F440139360026893685D
:10D9B000D1F820C043EA0C0393608A69002A026808
:10D9C000536814BF43F4806323F4806353604A694F
:10D9D000002A0268536814BF43F4805323F4805331
:10D9E00053604A68012A1BD0022A26D0032A026803
:10D9F00030D0136A6FF30B0313620268136AD1F815
:10DA00000CC043EA0C031362284BD0F800C0264A2E
:10DA10009C4504BFD1F800C0BCF1120F2CD125E009
:10DA2000026853696FF30B03536102685369D1F8BD
:10DA30000CC043EA0C035361E6E7026893696FF395
:10DA40000B03936102689369D1F80CC043EA0C039D
:10DA50009361D9E7D3696FF30B03D3610268D3698C
:10DA6000D1F80CC043EA0C03D361CDE7D2F804C06F
:10DA70004CF4800CC2F804C0D0F800C09C4508D11A
:10DA80000968102918BF112903D1516841F4000118
:10DA900051604FF00001C16330BC08467047000080
:10DAA00001000F000000F0FF0023014000200140B2
:10DAB00081B0002200920368521F1A60012904BF3E
:10DAC0000068C06B11D0022904BF0068006C0CD044
:10DAD000032904BF0068406C07D0042904BF006814
:10DAE000806C02D0009801B07047009001B0704780
:10DAF00038B44FF0000CCDF800C0C26B012A02BF51
:10DB0000022038BC70470122C2630A6807240368F8
:10DB1000092A13D9DD680A3A02EB420204FA02F23A
:10DB200025EA0202DA600A788B680A3A02EB4202BE
:10DB300093400268D4682343D36010E01D6902EB70
:10DB4000420204FA02F225EA02021A610A788B689C
:10DB500002EB4202934002681469234313614A684E
:10DB60001F24072A15D203685D6B521E02EB820246
:10DB700004FA02F225EA02025A630A8893B20A7989
:10DB8000521E02EB820293400268546B234353639C
:10DB90002BE003680D2A14D21D6BD21F02EB820208
:10DBA00004FA02F225EA02021A630A8893B20A7999
:10DBB000D21F02EB820293400268146B234313636B
:10DBC00013E0DD6A0D3A02EB820204FA02F225EA62
:10DBD0000202DA620A8893B20A790D3A02EB8202F3
:10DBE00093400268D46A2343D362174B0468154AF2
:10DBF0009C4204BF0C68122C03D1546844F4800486
:10DC0000546004689C4218D10B68102B18BF112B6C
:10DC100013D1536843F400035360096810290CD1F1
:10DC20000A490B4A0968B1FBF2F101EB8101490095
:10DC3000009102D0491E0091FCD1C0F83CC038BC14
:10DC400000207047002301400020014030000020E8
:10DC500040420F000068C06C704700002DE9F041A1
:10DC600004004FF0000504BF0120BDE8F081574FCC
:10DC7000206C002620B966642046E66300F0ACF80C
:10DC8000206C10F0100F18BF012503D02846E66362
:10DC9000BDE8F081206C20F4885040F00200206440
:10DCA0004B48416821F4403141604168626811434A
:10DCB00041602068416821F48071416020684168BA
:10DCC000226941EA022141602068416821F04071E7
:10DCD000416020684168A268114341602068816802
:10DCE00021F40061816020688168E26811438160ED
:10DCF000A06AB8422068816821F070618160206864
:10DD0000816808BF21F040510BD0A26A11438160A5
:10DD10002068816821F04051816020688168E26A52
:10DD2000114381602068816821F0020181602068D0
:10DD30008168A26941EA42018160206A0028206866
:10DD4000416808BF21F4006113D041F400614160D3
:10DD50002068416821F460414160206842684FF4C6
:10DD60006043616A93FAA3F3B3FA83F3491E9940BF
:10DD7000114341602068C16A21F47001C1622068CA
:10DD8000C16AA28B134B03EB02521143C16220689C
:10DD9000816821F40071816020688168226B41EA0A
:10DDA000422181602068816821F48061816020685F
:10DDB0008168626941EA822181606664206C20F09A
:10DDC000020040F00100206460E700000100000F45
:10DDD000002301400000F0FFF0B501680025374A3C
:10DDE0003F23032436487026364FA1F1804C87B07C
:10DDF000BCF5903C22D0DFF8D0C061453DD1116820
:10DE000041F4007111601168029501F400710591EF
:10DE1000CDE90034694600F07FFA0096694638463D
:10DE2000CDE9014500F078FA00220521122000F02A
:10DE300035FC122000F026FC07B0F0BD116841F45B
:10DE4000807111601168029501F480710591CDE92E
:10DE50000034694600F060FA009669463846CDE91C
:10DE6000014500F059FA00220521122000F016FCAD
:10DE7000122000F007FC07B0F0BDA1F18043B3F51C
:10DE800091331CBF07B0F0BD116841F4806111608F
:10DE90001168029501F4806105910F21CDE900140C
:10DEA000694600F039FA00220521122000F0F6FB45
:10DEB000122000F0E7FB07B0F0BD0000443802403C
:10DEC000000802400000024000210140816B02294D
:10DED00003D080218165012070470521816300689E
:10DEE000016821F001010160002070472DE9F8432D
:10DEF00004464FF00008CDF8008070484FF41651EA
:10DF0000E56D0068B0FBF1F72E6894F86000082119
:10DF100001FA00F0304211D02068026812F0040FBC
:10DF20000CD0026822F00402026094F8600001FA4A
:10DF300000F0A860A06D40F00100A06594F86010AA
:10DF40005F488840304209D02168496911F0800F4C
:10DF500004D0A860A06D40F00200A06594F86010A5
:10DF600058488840304209D02168096811F0020FF2
:10DF700004D0A860A06D40F00400A06594F8601083
:10DF800010208840304220D02168096811F0080F25
:10DF90001BD0A8602068016811F4802F09D00068A8
:10DFA00010F4002F02D0E16C79B10CE0616C51B932
:10DFB0000BE0016811F4807F03D1016821F00801B2
:10DFC0000160616C09B12046884794F860102020F8
:10DFD000884030424FF0010647D02168096811F0AF
:10DFE000100F42D0A860A06B05282068016809D0F6
:10DFF00011F4802F2AD0006810F4002F23D0216C58
:10E0000019B330E021F0160101602068416921F068
:10E0100080014161606C002804BFE06C002804D0DE
:10E020002068016821F00801016094F860004FF059
:10E030003F0101FA00F0A860C4F83480A663616D66
:10E04000B9BBBDE8F883A16C69B90EE0016811F4B1
:10E05000807F06D1016821F010010160C4F834808E
:10E06000A663216C09B120468847A06D002808BF2F
:10E07000BDE8F883A06D10F0010F15D04FF005003A
:10E08000A0632068016821F001010160009800F19F
:10E0900001000090B84204D82068006810F0010F19
:10E0A000F4D1C4F83480A663216D002908BFBDE80F
:10E0B000F883204601B0BDE8F04308473000002057
:10E0C000010080000400800070B5044600F040FAB2
:10E0D0000646002C04BF012070BD002502206563A8
:10E0E000A0632068016821F00101016020680068D8
:10E0F00010F0010F0ED000F02BFA801B052804D978
:10E100002020A0650320A06370BD2068006810F087
:10E11000010FF0D1216808683C4A1040D4E901237E
:10E120001A43D4E9033C43EA0C031A4363691A43D4
:10E13000A3691A43E3691A43236A1A431043626AC4
:10E14000042A03D1D4E90B231A431043086026683C
:10E1500070694FF0010C20F00701606A40EA01028B
:10E16000042837D1A16AE06A0A4318B3A36953B1FE
:10E17000B3F5005F14D000291CBF0129022921D06A
:10E1800003291CD026E019B1012905D0022921D18B
:10E1900010F0807F1ED015E0B0F1C07F1AD111E0E1
:10E1A00081B1012907D002290CD0032908BFB0F1A1
:10E1B000C07F07D00EE010F0807F03D10AE010F09E
:10E1C000807F07D04FF04000A065C4F838C04FF002
:10E1D000010070BD726120680D4AC1B2A1F1100149
:10E1E000A2FB01210B4A4FEA11110329525C22665E
:10E1F0006FF3090088BF001D3F219140E0658160F9
:10E20000A565C4F838C0002070BD00003F8010F044
:10E21000ABAAAAAA94A6010870B4D0F834C000240E
:10E22000C56DBCF1010F02BF022070BC70474FF0FA
:10E23000010CC0F834C0866B4FF0000C012E1CBFDF
:10E24000C0F834C0022402D0204670BC70470226B9
:10E250008663C0F858C0D0F800C0DCF8006026F42F
:10E260008026CCF80060D0F800C0CCF80430836879
:10E27000402B036803BF9A600268D16099601CBF9D
:10E280000168CA6090F860103F2202FA01F1A960AB
:10E2900001680A6842F016020A6001684A6942F0A1
:10E2A00080024A61416C21B101680A6842F00802AB
:10E2B0000A600068016841F001010160C4E731B5FE
:10E2C00000F046F9009C0546B4F1FF3F18BF641CFE
:10E2D00000F03EF9401BA042FAD338BD10F0050F04
:10E2E00001D008F04BBC10F4004F02D0002107F021
:10E2F000FDB810F0080F08BF7047012107F0F6B80D
:10E3000004490A68024208BF704710B50860FFF769
:10E31000E5FF10BD143C01402DE9F84FDFF81092E5
:10E320000022DFF808824FF0010E0F2709F1040ADE
:10E330000B680EFA02F52B40AB4240F0F080D1F8AA
:10E3400004C0BCF1020F18BFBCF1120F14D14FEA88
:10E35000D20C00EB8C04266A4FEA427C4FEADC6C5C
:10E3600007FA0CFB26EA0B06D1F810B00BFA0CFCEE
:10E370004CEA060CC4F820C006684FEA420C91F83B
:10E3800004B04FF0030404FA0CF40BF0030B26EA7C
:10E3900004060BFA0CFB4BEA060606604E68012EDB
:10E3A00018BF022E03D0112E18BF122E14D186686A
:10E3B000D1F80CB026EA04060BFA0CFB4BEA060671
:10E3C0008660466826EA05050E79C6F3001606FA49
:10E3D00002F646EA05054560C56825EA04048D682D
:10E3E00005FA0CFC4CEA040CC0F80CC0D1F804C0CF
:10E3F0001CF0805F7ED0D8F800C04CF4804CC8F888
:10E4000000C0D8F800C00CF4804CCDF800C022F059
:10E41000030C0CF1804404F59834D4F808C84FEA92
:10E4200082754FEA157507FA05F62CEA0606A0F183
:10E43000804CBCF5003C38D0A0F1804CBCF5013CD0
:10E4400008BF4FF0010C30D0A0F1804CBCF5023C6D
:10E4500008BF4FF0020C28D0A0F1804CBCF5033C63
:10E4600008BF4FF0030C20D0A0F1804CBCF5043C59
:10E4700008BF4FF0040C18D0A0F1804CBCF5053C4F
:10E4800008BF4FF0050C10D0A0F1804CBCF5063C45
:10E4900008BF4FF0060C08D0A0F1804CBCF5073C3B
:10E4A0000CBF4FF0070C4FF0080C0CFA05FC4CEABF
:10E4B000060CC4F808C8D9F800C04C682CEA030C54
:10E4C00014F4803F18BF4CEA030CC9F800C0DAF816
:10E4D00000C04C682CEA030C14F4003F18BF4CEA4F
:10E4E000030CCAF800C0134CD4F800C04D682CEAE5
:10E4F000030C00E013E015F4801F18BF4CEA030C76
:10E50000C4F800C00C4CD4F800C04D682CEA030CD1
:10E5100015F4001F18BF4CEA030CC4F800C0521CCD
:10E52000102AFFF405AFBDE8F88F00004438024020
:10E53000003C0140083C01400C3C0140006908409F
:10E5400018BF01207047002A08BF09048161704785
:10E550000148006870470000D805002002480168A3
:10E56000491C016070470000D80500200B4810B519
:10E57000016841F400710160016841F4806101604B
:10E58000016841F480710160032000F0B9F80020B7
:10E5900000F006F800F03EF8002010BD003C0240FC
:10E5A00010B5014688B000222D2000F077F82D200C
:10E5B00000F068F813480024016841F4807101609C
:10E5C000006805A900F480700690684600F0C4FE5B
:10E5D00000F0E8FE0C494000B0FBF1F0411E0C4891
:10E5E0000A4A026040F2E732C0E90324C0E901149C
:10E5F00001F0EAFB00280ABF0548012001F03CFCBD
:10E6000008B010BD4038024040420F0000200040DA
:10E610001C07002010B5032000F072F800221146FC
:10E620006FF00B0000F03AF8002211466FF00A007C
:10E6300000F034F8002211466FF0090000F02EF8C7
:10E6400000221146501F00F029F800221146101F29
:10E6500000F024F800220F21901E00F01FF8002285
:10E660000F21BDE81040501E00F018B800F01F0147
:10E67000012202FA01F14009800000F1E020C0F817
:10E680008011704700F01F01012202FA01F14009D8
:10E69000800000F1E020C0F800117047174B10B463
:10E6A0001B68C3F30223C3F1070CBCF1040F88BF3E
:10E6B0004FF0040C1C1D072C34BF0023DB1E01246B
:10E6C00004FA0CFCACF1010C0CEA0101994004FACB
:10E6D00003F35B1E1A40114300284FEA0111A1BF4A
:10E6E00000F1E02080F8001410BC704700F00F002B
:10E6F00000F1E02080F8141D10BC70470CED00E024
:10E70000074A00F0070011684FF6FF03194041EA7D
:10E71000002040F0FD7040F0806010607047000005
:10E720000CED00E0006841620020704770B40068A2
:10E730000023D0F824C0002904BF4CEA02418162C2
:10E7400018D0846A0CEB144C4C1E002CC8BF4FF43C
:10E75000827508DD05EB830686595B1CDBB20CEB8A
:10E76000164C9C42F6DC4FF4807303EB81014CEABB
:10E770000242425070BC00207047D0F8F00304F011
:10E780007AB9C1EBC10200EB8202D0F8F003526CFF
:10E7900004F0E4B8C1EBC10200EB8202D0F8F00350
:10E7A000D2F8042204F032B9D0F8F00304F065B9CD
:10E7B00010B504460A4611F0800F01F07F00C0EB4F
:10E7C000C00104EB810114BF383101F5FC71087000
:10E7D000D0094870D4F8B803012804BF022010BD46
:10E7E0000120C4F8B803206804F060FD0020C4F8DC
:10E7F000B80310BD70B504460A4611F0800F01F051
:10E800007F0014BFC0EBC001C2EBC20104EB810169
:10E8100014BF383101F5FC7100258D700870D009E6
:10E820004870D4F8B803012804BF022070BD01204D
:10E83000C4F8B803206804F031FF0020C4F8B853CE
:10E8400070BD01F00F01C1EBC10100EB8100B0F818
:10E85000100280B2704770B504468C4611F0800FEC
:10E8600001F07F00C0EBC00104EB810114BF38311F
:10E8700001F5FC7108705FEADC1C81F801C08A6058
:10E88000CB7018BFC8800025022B08BF0D71D4F8CB
:10E89000B803012804BF022070BD0120C4F8B803EA
:10E8A000206804F037FC2846C4F8B85370BD10B592
:10E8B0000C4601F07F0CCCEBCC0100EB8101C1F8E0
:10E8C0000C32C1F804220023C1F8103281F8F9316A
:10E8D00081F8F8C1036901F5FC71012B08BF0A61D9
:10E8E00014F07F0F027C006803D004F03CFF00208E
:10E8F00010BD04F00BFEFAE770B504460D4611F0AA
:10E90000800F01F07F0014BFC0EBC001C5EBC50153
:10E9100004EB810114BF383101F5FC7101228A70CA
:10E920000870E8094870D4F8B803012804BF022031
:10E9300070BDC4F8B823206804F0E3FE15F07F0F23
:10E9400005D1217C04F57072206804F088FE002057
:10E95000C4F8B80370BD10B50C4601F07F0CCCEBC9
:10E96000CC0100EB8101CB644A6400230B650123D9
:10E9700081F8393001F838CF0369012B08BF0A61EB
:10E9800014F07F0F027C006803D004F0ECFE00203E
:10E9900010BD04F0BBFDFAE72DE9F04F0668044610
:10E9A00083B00025304605F044F800281CBF03B0B2
:10E9B000BDE8F08F206805F065F8002804BF03B0BB
:10E9C000BDE8F08F206805F05DF810F0020F04D06C
:10E9D0002068416901F002014161206805F052F8A8
:10E9E00010F4002F4FF008084FF010094FF0010B02
:10E9F00050D0206805F028F807004BD017F0010F21
:10EA000044D0E9B2206805F035F8824610F0010FD5
:10EA10002BD006EB4512C2F808BB2069012811D1A2
:10EA2000C5EBC50004EB8000D2F8102BD0F8001223
:10EA3000C2F312028A1AC0F81022D0F8042211443C
:10EA4000C0F80412E9B22046FFF7A4FE20690128AD
:10EA500002BF002DD4F80C02002806D104F5707214
:10EA60004FF00101206804F0FAFD1AF0080F06D0FB
:10EA7000204600F058FB06EB4510C0F8088B1AF052
:10EA8000100F1CBF06EB4510C0F8089B05F10105EF
:10EA90007F08B3D1206804F0F5FF10F4802F7BD0FD
:10EAA000206804F0CAFF5FEA000A4FF0000573D047
:10EAB0001AF0010F71D0E9B2206804F0CCFF0746CC
:10EAC00010F0010F29D00121D6F8342801FA05F001
:10EAD00022EA0000C6F8340806EB4510C0F8081911
:10EAE0002069012807D1C5EBC50004EB8000D0E9FF
:10EAF000102111444164E9B22046FFF742FE20692B
:10EB0000012802BF002DE06C002806D104F57072C8
:10EB10004FF00101206804F0A2FD17F0080F05D0A6
:10EB200006EB45114FF00800C1F8080917F0100F67
:10EB300005D006EB45114FF01000C1F8080917F099
:10EB4000400F05D006EB45114FF04000C1F8080911
:10EB500017F0020F05D006EB45114FF00200C1F887
:10EB6000080917F0800F4AD0C5EBC50004EB800000
:10EB700000F13807D7E90501A0EB0108B868D4F81F
:10EB800000B0804588BF804608F103004FEA900935
:10EB90000BEB451001901BE036E030E0A0EB0108E4
:10EBA000B868404538BF804608F103004FEA900935
:10EBB000207C00901FFA88F3EAB25846F96804F006
:10EBC0009EFFF8684044F860B8694044B861019815
:10EBD000D0F8180980B2484584BFD7E905018842BA
:10EBE00001D90028DAD1B8F1000F08D1012101FACA
:10EBF00005F0DBF8341821EA0000CBF834086D1C6E
:10EC00005FEA5A0A7FF454AF206804F03BFF10F02B
:10EC1000004F0DD0D6F8040820F00100C6F8040813
:10EC2000204600F066FA2068416901F00041416128
:10EC3000206804F027FF10F4006F0CD0D6F8080805
:10EC400010F0010F1CBF204600F08AFA20684169CD
:10EC500001F400614161206804F014FF10F4805F4A
:10EC60004FD0D6F8040820F00100C6F8040810219F
:10EC7000206804F0ADFE61680020002988BFFF22F3
:10EC800009D906EB4011C1F80829C1F8082B6168C1
:10EC9000401C8142F5D84FF0FF30C6F81808D6F86E
:10ECA0001C0840F00110C6F81C08206B60B1D6F8B3
:10ECB000840840F00B00C6F88408D6F8440840F0F9
:10ECC0000B00C6F844080BE0D6F8140840F00B001F
:10ECD000C6F81408D6F8100840F00B00C6F8100863
:10ECE000D6F8000820F4FE60C6F80008217C04F580
:10ECF0007072206804F0B3FC2068416901F480510F
:10ED00004161206804F0BEFE10F4005F38D0206836
:10ED100004F048FA2068C16821F47051C16020688D
:10ED200004F06AFE78B10320E0604020606100F0EA
:10ED300033FB8349834A014491420FD22068C16862
:10ED400041F4705113E00020E0604FF40070606106
:10ED50002068C16841F41051C16009E07A497B4ADA
:10ED60000144914228D22068C16841F46051C160D9
:10ED7000204600F0ADF92068416901F4005141617D
:10ED8000206804F07FFE10F0100F75D020688169B4
:10ED900021F010018161D6F8208008F00F00C0EB4F
:10EDA000C00004EB800000F5FC77C8F34340022864
:10EDB00050D0062861D06BE0A0F57401644AA1F53B
:10EDC0001051914204D22068C16841F45051CEE7FD
:10EDD000A0F183715F4AA1F5E741914204D2206816
:10EDE000C16841F44051C2E75B495C4A0144914229
:10EDF00004D22068C16841F43051B8E75849594AF3
:10EE00000144914204D22068C16841F42051AEE728
:10EE10005549564A0144914204D22068C16841F4E0
:10EE20001051A4E7A0F1B771514AA1F55851914290
:10EE300004D22068C16841F4005198E74D49084464
:10EE40004D4988422068C16834BF41F4E05141F423
:10EE5000C0518CE747F6F07018EA000F18D0C8F3DD
:10EE60000A1290463046F96804F010FEF8684044F3
:10EE7000F860B86940440AE00FE0082204F57071B8
:10EE8000304604F003FEB869C8F30A110844B861BB
:10EE90002068816941F010018161206804F0F2FD71
:10EEA00010F0080F07D0204600F027F920684169CC
:10EEB00001F008014161206804F0E4FD10F4801FB6
:10EEC00008D0E9B2204600F059F82068416901F401
:10EED00080114161206804F0D5FD10F4001F08D0B6
:10EEE000E9B2204600F04EF82068416901F40011B3
:10EEF0004161206804F0C6FD10F0804F07D0204625
:10EF0000FFF73BFC2068416901F0804141612068C6
:10EF100004F0B8FD10F0040F04BF03B0BDE8F08F9B
:10EF20002068456815F0040F1CBF2046FFF73CFC25
:10EF3000206841682943416003B0BDE8F08F0000BC
:10EF4000405327FF00350C00401E1BFF40420F00BE
:10EF5000804F120020D6130060B6E5FE60E3160075
:10EF600000D3CEFE40771B00C05BB3FEC0912100F2
:10EF700020753800E05459FEE09C4100D0F8F003C1
:10EF800003F0D8BDD0F8F00303F0D6BD2DE9F04171
:10EF90008AB004004FF0000502BF01200AB0BDE8AE
:10EFA000F0810320C4F8BC03204600F05BF8206821
:10EFB00004F0A6FA1034B4E8CF118DE8CF1174E84C
:10EFC0000C01CDE9080194E80F0004F005F90021D7
:10EFD000206804F06CFD01260022C5EBC50004EB9F
:10EFE000800080F8396080F83850C58780F83B2071
:10EFF000026442646D1CC2640F2DEED300204FF4F6
:10F000008273C0EBC00104EB810103EB800C81F83B
:10F01000F92181F8F801C88781F8FB21C1F80022A5
:10F02000C1F80422C1F80C22216841F80C20401CD0
:10F030000F28E6D304F1100090E8AF118DE8AF116E
:10F04000D4E90C01CDE9080194E80F0004F0ACF913
:10F05000C4F8BC63206804F09BF90AB00020BDE846
:10F06000F081000000B5006887B0B0F1A04F1CBF70
:10F0700007B000BD4FF4C050009002200190002066
:10F080000290032003900A20049069460D48FFF780
:10F0900043F90D48016841F0800101600B480168A7
:10F0A00041F4804101600068002200F48040059036
:10F0B00005214320FFF7F2FA4320FFF7E3FA07B0F8
:10F0C00000BD0000000002403438024044380240D5
:10F0D00010B50446C0680121002808BF0021D4F8FB
:10F0E000F00303F080FDD4F8F003BDE8104003F016
:10F0F00048BDD0F8F00303F063BDD0F8F00303F08F
:10F1000065BD10B50446D0F8B803012804BF02203D
:10F1100010BD0120C4F8B803206804F0DFFC002013
:10F12000C4F8B80310BDD0F8F02300F57071104694
:10F1300003F06CBD10B50446D0F8B803012804BF35
:10F14000022010BD0120C4F8B803206804F014F9AF
:10F15000206804F037FC0020C4F8B80310BD00009C
:10F1600010B50446D0F8F00303F09FFD2068D0F8F6
:10F17000001E41F00101C0F8001E206A002808BFEF
:10F1800010BD0348016841F00601016010BD000098
:10F1900010ED00E02DE9F05FDFF8A89104460E467F
:10F1A000D9F80000CFB200F00F00B04207D289F8C2
:10F1B0000070D9F8000000F00F00B04242D1207872
:10F1C000DFF8848110F0020F07D0D8F80000A168A2
:10F1D00020F0F0000843C8F80000207810F0010F7C
:10F1E0006ED060685949012828D0022818BF03282A
:10F1F000096828D011F0020F70D0D8F8001021F063
:10F20000030141EA0000C8F80000FFF7A1F9054634
:10F21000606841F2883A012819D0022829D00328D1
:10F22000D8F8000037D010F00C0F49D0FFF790F954
:10F23000401B50453FD90320BDE8F09F096811F4F9
:10F24000003FDAD14AE011F0007FD6D146E0D8F88D
:10F25000000000F00C00042832D0FFF779F9401BC1
:10F260005045E8D8D8F8000000F00C000428F4D18C
:10F2700026E0D8F8000000F00C00082820D0FFF7A6
:10F2800067F9401B5045D6D8D8F8000000F00C00B4
:10F290000828F4D114E04FF00C0B3BEA00000FD02B
:10F2A000FFF756F9401B5045C5D8D8F800003BEA97
:10F2B0000000F5D104E0D8F8000010F00C0FB5D133
:10F2C000D9F8000000F00F0086420AD289F80070D9
:10F2D000D9F8000000F00F00B04202D00120BDE8D4
:10F2E000F09F207810F0040F07D0D8F80000E168F4
:10F2F00020F4E0500843C8F80000207810F0080F10
:10F3000008D0D8F80000216920F4604040EAC1002C
:10F31000C8F8000000F076F8D8F80010F02292FA51
:10F32000A2F201F0F001B2FA82F2D140084A515C37
:10F33000C840084908600020FFF732F90020BDE806
:10F34000F09F0000003C02400838024000380240B4
:10F350003C9B0108300000200F2202600C4A136819
:10F3600003F003034360136803F0F0038360136842
:10F3700003F4E053C36012684FF4E05303EAD2028F
:10F3800002610448006800F00F0008607047000048
:10F3900008380240003C0240014800687047000005
:10F3A0003000002008480949006809684FF4E0521D
:10F3B00092FAA2F201F4E051B2FA82F2D140044A88
:10F3C000515CC840704700003000002008380240FF
:10F3D0004C9B010808480949006809684FF46042DD
:10F3E00092FAA2F201F46041B2FA82F2D140044AE8
:10F3F000515CC840704700003000002008380240CF
:10F400004C9B01081F48006810F00C011E4808BF03
:10F410007047DFF878C0042904BF604670470829A8
:10F4200018BF704710B41A4A1168136801F03F0101
:10F4300013F4800F47F6C0730AD0BCFBF1F01168DB
:10F44000194093FAA3F3B3FA83F3D940484309E090
:10F45000B0FBF1F01168194093FAA3F3B3FA83F308
:10F46000D940484311684FF4403292FAA2F201F4B5
:10F470004031B2FA82F2D140491C4900B0FBF1F0B0
:10F4800010BC7047083802400024F40000127A00D3
:10F49000043802402DE9F84F0446DFF8A8830078CD
:10F4A000A8F1040710F0010FA7F1040557D0D8F810
:10F4B000000000F00C00042809D0D8F8000000F08B
:10F4C0000C0008280CD1386810F4800F08D0286888
:10F4D00010F4003F43D06068002800F0B0813EE0A7
:10F4E0006068B0F5803F19D0B0F5A02F28680CBF38
:10F4F00040F4802020F48030286028680CBF40F45D
:10F50000803020F4802028606068B8B1FFF720F8D0
:10F510000646286810F4003F05D020E0286840F433
:10F5200080302860F0E7FFF713F8801B642800F2B2
:10F530003181286810F4003FF5D010E0FFF708F89B
:10F540000646286810F4003F09D0FFF701F8801B39
:10F55000642800F21F81286810F4003FF5D120785C
:10F56000DFF8E49210F0020F4FF0000650D0D8F808
:10F5700000004FF0F80B10F00C0F17D0D8F8000077
:10F5800000F00C00082804BF386810F4800F0DD07C
:10F59000E06850B34FF00100C9F80000FEF7D8FF53
:10F5A0008246286810F0020F09D012E0286810F097
:10F5B000020F1CBFE06801280BD000F040B9FEF735
:10F5C000C7FFA0EB0A0002287ED8286810F0020FBF
:10F5D000F5D028689BFAABF22169B2FA82F220F0EA
:10F5E000F80091400843286012E0C9F80060FEF777
:10F5F000AFFF8246286810F0020F09D0FEF7A8FF7F
:10F60000A0EB0A0002285FD8286810F0020FF5D19D
:10F61000207810F0080F2ED08C48DFF834B26169E2
:10F62000A9B101210160FEF793FF8246DBF80000DB
:10F6300010F0020F1FD1FEF78BFFA0EB0A0002288B
:10F6400042D8DBF8000010F0020FF4D013E006609F
:10F65000FEF77EFF8246DBF8000010F0020F0AD0B2
:10F66000FEF776FFA0EB0A0002282DD8DBF8000099
:10F6700010F0020FF4D1207810F0040F72D075480A
:10F68000016841F0805101600068DFF8CCB100F002
:10F6900080500090DBF8000040F48070CBF8000050
:10F6A000FEF756FF8246DBF8000010F4807F0AD197
:10F6B000FEF74EFFA0EB0A0002286BD8DBF8000033
:10F6C00010F4807FF4D000E064E0A068DFF88CB133
:10F6D00001281DD00528DBF800000CBF40F0040015
:10F6E00020F00100CBF80000DBF800000CBF40F078
:10F6F000010020F00400CBF80000A068E8B1FEF79C
:10F7000027FF8246DBF8000010F0020F07D029E047
:10F71000DBF8000040F00100CBF80000EDE7FEF759
:10F7200017FFA0EB0A0141F28830814232D8DBF8A2
:10F73000000010F0020FF2D014E0FEF709FF82463D
:10F74000DBF8000010F0020F0CD0FEF701FFA0EB79
:10F750000A0141F2883081421CD8DBF8000010F029
:10F76000020FF2D1A069E8B3D8F8001001F00C0143
:10F77000082964D00228C9F860600ED0FEF7E8FEC0
:10F780000446286810F0007F56D0FEF7E1FE001B0B
:10F7900002284DD90320BDE8F88FFEF7D9FE0646B2
:10F7A000286810F0007F08D0FEF7D2FE801B0228E8
:10F7B000F0D8286810F0007FF6D1D4E9070140EABC
:10F7C000010247F6C07191FAA1F1606AB1FA81F1C4
:10F7D00000FA01F1A06A4FF0FF3303EB50004FF441
:10F7E000403300E028E093FAA3F3B3FA83F39840A0
:10F7F000084310434FF0706292FAA2F2E16AB2FA43
:10F8000082F29140084338600120C9F86000FEF799
:10F810009FFE0446286810F0007F0DD1FEF798FE89
:10F82000001B0228B6D8286810F0007FF6D003E04D
:10F83000286810F0007FA8D10020BDE8F88F0120D3
:10F84000BDE8F88F0838024000004742800E47426A
:10F850007438024040380240007000407038024066
:10F86000002804BF0120704770B50025044685625A
:10F87000406D18B92046256500F02EF8022060651D
:10F880002068016821F040010160D4E901010843CA
:10F89000D4E903121143084361690843218B01F441
:10F8A00000710843E1690843216A0843A16A0843DB
:10F8B00021680860A069042101EA1040616A0843D8
:10F8C000216848602068C16921F40061C161A565B3
:10F8D00001206065002070BD00B5006887B0A0F110
:10F8E0008041B1F570511CBF07B000BD00210C482C
:10F8F000026842F400420260006800F40040059093
:10F900004FF4E05000900220CDE901010320039064
:10F910000620049069460348FEF7FEFC07B000BDD0
:10F9200040380240000802402DE9F84F0446006DBF
:10F9300000271E4693460D46012804BF0220BDE85D
:10F94000F88F4FF0010AC4F850A0FEF701FE804680
:10F95000606D4FF00009012818BF022774D1002DF7
:10F9600018BFBBF1000F71D04FF003006065C4F801
:10F9700058902563A4F834B0A4F836B0C4F8389091
:10F98000A4F83C90A4F83E90C4F84490C4F8409089
:10F99000A068B0F5004F04D12068016841F48041AF
:10F9A00001602068016811F0400F03D1016841F047
:10F9B00040010160E068B0F5006F606805D0002884
:10F9C0001CBFE08E01282AD030E000281CBFE08E4A
:10F9D000012807D1216835F8020BC860E08EA0F13C
:10F9E0000100E086E08E80B32068816811F0020F8C
:10F9F00007D035F8021BC160E08EA0F10100E0865F
:10FA000009E0D6B3B6F1FF3F05D0FEF7A1FDA0EBAC
:10FA10000800B04231D2E08E0028E5D124E0216810
:10FA200015F8010B0873E08E401EE086E08E60B191
:10FA30002068816811F0020F09D015F8011B0173CD
:10FA4000E08E401EE0860CE02CE00DE029E0A6B13F
:10FA5000B6F1FF3F05D0FEF77BFDA0EB0800B042FA
:10FA60000BD2E08E0028E3D133460122022120464A
:10FA7000CDF8008001F0FBFE08B1032712E04246FA
:10FA80003146204601F0E2FE18B101272020A06592
:10FA900008E0A06818B92068C16880680090A06D6F
:10FAA00000B10127C4F854A03846C4F85090BDE80E
:10FAB000F88F2DE9F84F0446006D0127DDF8288006
:10FAC0009B4616460D464FF00009012804BF022050
:10FAD000BDE8F88F01202065FEF73AFD8246606D93
:10FAE0006168012809D0B1F5827F03BFA1680029B0
:10FAF00004284FF0020940F0CB80002D1ABF002EE1
:10FB0000BBF1000F4FF0010900F0C280606D0128C9
:10FB100004BF052060650020A065A663A4F83EB080
:10FB2000A4F83CB02563A4F836B0A4F834B020643F
:10FB300060642068016811F0400F03D1016841F052
:10FB400040010160E068B0F5006F606805D00028F2
:10FB50001CBFE08E01284ED081E000281CBFE08E43
:10FB6000012834D1216835F8020BC860E08EA0F17D
:10FB70000100E0862BE0002F1CBFE08E00280DD096
:10FB80002068816811F0020F08D035F8021BC160AF
:10FB9000E08EA0F10100E0864FF00007E08F68B131
:10FBA0002068816811F0010F08D0C06826F8020BA8
:10FBB000E08FA0F10100E0874FF00107B8F1FF3FAF
:10FBC00005D0FEF7C5FCA0EB0A00404510D2E08E40
:10FBD000002804BFE08F0028CDD143464FF001023A
:10FBE0004FF002012046CDF800A001F040FEE8B33E
:10FBF0004FF003094CE0216815F8010B0873E08E03
:10FC0000401EE0862BE0002F1CBFE08E00280DD0A8
:10FC10002068816811F0020F08D015F8011B0173EC
:10FC2000E08EA0F10100E0864FF00007E08F68B1A0
:10FC30002068816811F0010F08D0C06806F8010B38
:10FC4000E08FA0F10100E0874FF00107B8F1FF3F1E
:10FC500005D0FEF77DFCA0EB0A004045C8D2E08E3F
:10FC6000002804BFE08F0028CDD1B6E7FFE7524659
:10FC70004146204601F0EAFD20B120204FF0010965
:10FC8000A06505E0A06818B92068C1688068009088
:10FC900001206065002020654846BDE8F88F4FF0E0
:10FCA000E021042808690CBF40F0040020F00400A3
:10FCB00008617047401EB0F1807F24BF012070476B
:10FCC0004FF0E0214861054AF02082F8140D002031
:10FCD0008861072008610020704700000FE000E005
:10FCE00070477047826B012A04BF022070470122CF
:10FCF0008263CA68D1F808C022F4407242EA0C025A
:10FD0000D1F804C022F4806242EA0C02D1F800C0AB
:10FD100022F4006242EA0C02D1F810C022F48052B0
:10FD200042EA0C02D1F814C022F4005242EA0C025A
:10FD3000896922F480420A43002322F400421143DD
:10FD400002685164836300207047826B012A04BFFC
:10FD50000220704710B4012302228363C263026849
:10FD6000D2F804C02CF0700CC2F804C00268D2F8BB
:10FD700004C00C684CEA040CC2F804C00268D2F853
:10FD800008C02CF0800CC2F808C00268D2F808C085
:10FD900049684CEA01019160C3630021816310BC92
:10FDA0000846704710B504460068042202F043F884
:10FDB0002068416C41F4004141642068016841F0D1
:10FDC00001010160002010BD002804BF0120704720
:10FDD00010B50446C06B20B90020A063204600F097
:10FDE0000BF80220E063211D206801F0B3FF012021
:10FDF000E063002010BD000000B500680021A0F104
:10FE0000804287B0B2F5803224D0A0F18042B2F5B2
:10FE100040621CBF07B000BD1448026842F00802EF
:10FE20000260006800F008000590082000900220A1
:10FE3000CDE902010190049069460D48FEF76CFA85
:10FE4000002211463220FEF729FC3220FEF71AFC70
:10FE500007B000BD0748016841F00101016000687A
:10FE600000F00100059007B000BD000040380240DE
:10FE700000000240443802400168CA6842F00102B2
:10FE8000CA600068016841F001010160002070470C
:10FE9000826B012A0DBF022001238363704730B4B7
:10FEA0000222C2630268D2F808C02CF0770C2CF44E
:10FEB0007F4CC2F808C00A68502A41D00CDC202AC6
:10FEC00076D004DC002A74D0102A73D0B1E0302A36
:10FED00071D0402A71D0ACE0602A4DD0702A0BD08E
:10FEE000B2F5805F03D0B2F5005F17D0A1E00168E2
:10FEF0008A6822F007023DE00268D1F804C08C68ED
:10FF0000C96895684CEA012125F47F4521432943BE
:10FF1000916001688A6842F077022BE00268D1F8AC
:10FF200004C08C68C96895684CEA012125F47F45B6
:10FF300021432943916001688A6842F4804219E0B4
:10FF40000268D1F804C0CC68116A156A25F0010571
:10FF50001562956921F00A0125F0F00545EA0414BF
:10FF600041EA0C019461116201688A6822F0700212
:10FF700042F057028A605CE00268D1F804C0CC68A5
:10FF8000116A21F0100111629569116A25F470451A
:10FF900045EA043421F0A00141EA0C119461116298
:10FFA00001688A6822F0700242F067028A6040E0CD
:10FFB00030E01FE026E035E0FFE70268D1F804C03A
:10FFC000C968146A156A25F001051562956924F05F
:10FFD0000A0425F0F00545EA011144EA0C0C916190
:10FFE000C2F820C001688A6822F0700242F047021D
:10FFF0008A601EE001688A6822F0700242F00702FF
:020000040801F1
:100000008A6016E001688A6822F0700242F01702E6
:100010008A600EE001688A6822F0700242F02702CE
:100020008A6006E001688A6822F0700242F03702B6
:100030008A60C3630021816330BC08467047002892
:1000400004BF0120704770B50446C06B0D4620B94F
:100050000020A063204600F045F80220E0632068FD
:10006000816821F007018160211D206801F072FE86
:10007000206883688169026AD5F800C021F0030115
:10008000AE694CEA030321F4407141EA0621D5F838
:1000900008C0EE694CEA010121F0FC0121F47C4129
:1000A000D5F80CC041EA06214CEA0101D5F810C090
:1000B0002E6A4FEA0C1C4CEA063C4CEA0101D5F8CA
:1000C00004C06D6922F0AA0242EA05124CEA02025B
:1000D000836020688161206802620120E063002063
:1000E00070BD000010B501681B4A02231B48A1F136
:1000F000804486B04FF0000CB4F5806419D0A1F1B3
:100100008044B4F500641CBF06B010BD116841F016
:1001100004011160116801F004010591C0210091F2
:10012000CDE9013CCDE903C36946FEF7F5F806B019
:1001300010BD116841F002011160116801F0020167
:10014000059130210091CDE9013CCDE903C3694619
:10015000FEF7E2F806B010BD40380240000402404D
:1001600010B504460068002908BF012212D00429F6
:100170004FF001020ED0002101F050FE01220421B7
:10018000206801F04BFE2068016841F00101016028
:10019000002010BD01F042FEF5E700002DE9F0411E
:1001A0000068A0F18041B1F5406118BFBDE8F08161
:1001B000244C254D002720784DF6FF7610B10128FC
:1001C00021D02DE02868016A41F21112114207D1B5
:1001D000016A9210114203D1016821F0010101600E
:1001E000286847622868016A314001622868016A0C
:1001F00041F4005101622868016841F00101016089
:10020000012020700CE00C210F4800F01BFC6080E6
:100210002868016A314001622868016A016227701A
:1002200060880A49B0F57A7F83BFA0F5487000EE78
:10023000100AB8EEC00A9FED060A81ED080ABDE873
:10024000F0810000280000205C0800209C000020B5
:10025000000048432DE9F0410446806B0D4601281B
:1002600004BF0220BDE8F08101260220A663E063FE
:10027000002A35D04FF47047042A41D02068082A5C
:100280006AD0D5E90032E968D0F820C02CF4805C4F
:10029000C0F820C0D0F81C80D0F820C028F44078E6
:1002A00048EA022222F4704207EA013111432CF499
:1002B00020424FF4204C0CEA03331A43C16102621E
:1002C0002068C16921F44061C1612068C169AA68E0
:1002D00041EA0221C161E6630020A063BDE8F0812C
:1002E000D5E90012EB68206801F016FE20688169EC
:1002F00021F00C01816120688169AA68114329E01D
:100300002068D5E90032E968D0F820C02CF0100C44
:10031000C0F820C0D0F81880D0F820C028F4407869
:1003200048EA022222F4704207EA013111432CF01C
:10033000A0024FF0A00C0CEA03131A438161026281
:100340002068816921F44061816120688169AA681F
:1003500041EA02218161BEE7D5E900C1EB68026A8A
:1003600022F480720262C769026A27F003073943E8
:10037000F02721F0F00107EA031319434FF420633B
:1003800022F4206203EA0C231A43C161026220684E
:10039000C16921F00C01C1612068C169AA681143DB
:1003A00098E7002804BF0120704710B50446C06BD1
:1003B00020B90020A063204600F00AF80220E06384
:1003C000211D206801F0C6FC0120E063002010BD63
:1003D000704710B502680446002904BFD06840F099
:1003E000020011D0042904BFD06840F004000BD0F3
:1003F000082904BFD06840F0080005D00C2904BFCC
:10040000D06840F0100000D1D0600122206801F0D7
:1004100005FD2068016841F001010160002010BD68
:1004200070B50446006801694FF0000511F0020F35
:100430001CBFC16811F0020F13D06FF002010161FF
:100440000120A0612068806910F0030F204602D0CF
:10045000FFF7A4FE04E000F07FF9204600F096FAD2
:10046000A5612068016911F0040F1CBFC16811F07B
:10047000040F13D06FF0040101610220A061206815
:10048000806910F4407F204602D0FFF787FE04E029
:1004900000F062F9204600F079FAA5612068016950
:1004A00011F0080F1CBFC16811F0080F13D06FF0D6
:1004B000080101610420A0612068C06910F0030FE9
:1004C000204602D0FFF76AFE04E000F045F920461E
:1004D00000F05CFAA5612068016911F0100F1CBFE3
:1004E000C16811F0100F13D06FF0100101610820E6
:1004F000A0612068C06910F4407F204602D0FFF759
:100500004DFE04E000F028F9204600F03FFAA56116
:100510002068016911F0010F1CBFC16811F0010FC3
:1005200005D06FF001010161204600F082FA2068D9
:10053000016911F0800F1CBFC16811F0800F05D058
:100540006FF0800101612046FFF7CAFB2068016956
:1005500011F0400F1CBFC16811F0400F05D06FF0C3
:1005600040010161204600F08CFA2068016911F019
:10057000200F1ABFC16811F0200F70BD6FF020016D
:1005800001612046BDE87040FFF7ABBB2DE9F041AB
:1005900001680024022601252E4FDFF8BC80A1F15E
:1005A000804086B0B0F580302CD0B1F1804F42D081
:1005B000A1F18040B0F582301CBF06B0BDE8F081EB
:1005C00080200090CDE90164032569464046CDE9CD
:1005D0000345FDF7A1FE0095CDE901646946384663
:1005E000CDE90345FDF798FE4FF4E0700090CDE9AA
:1005F000016469461948CDE90345FDF78DFE06B053
:10060000BDE8F0814FF460400090CDE90164694697
:100610003846CDE90345FDF77FFE4FF4E0600090DA
:10062000CDE9016469464046CDE90345FDF774FE16
:1006300006B0BDE8F0814FF440600090CDE9016460
:1006400069463846CDE90345FDF766FE06B0BDE8CC
:10065000F081000000040240000002400008024057
:100660002DE9F0410446806B012804BF0220BDE85B
:10067000F08101250220A563E06342B1042A0AD07B
:10068000334E344F082A0AD00C2A37D05AE020685B
:1006900001F0DEFB56E0206801F00AFC52E022681F
:1006A000106A20F480701062106A5368D2F81CC07F
:1006B000D1F800802CF0730C48EA0C0CD1F80880BB
:1006C00020F4007040EA0820B24218BFBA420ED1AE
:1006D000CE6820F4006040EA06204E6923F44053BF
:1006E00043EA06138E6920F4806043EA06135360E0
:1006F000C2F81CC04968D163106223E02268106A06
:1007000020F480501062D2F820C05068D369D1F82C
:10071000008023F4E64343EA0823D1F808802CF450
:10072000005C4CEA083CB24218BFBA4204D14E69A0
:1007300020F4804040EA86105060D361486810641D
:10074000C2F820C0E5634FF00000A063BDE8F0816F
:1007500000000140000401407047002804BF012050
:10076000704710B50446C06B20B90020A063204636
:1007700000F00AF80220E063211D206801F0EAFA87
:100780000120E063002010BD704700002DE9F0411A
:100790000446806B0D46012804BF0220BDE8F081AD
:1007A00001260220A663E0634AB1042A19D0DFF8CB
:1007B0004CC1534F082A28D00C2A65D097E02068F6
:1007C00001F046FB2068816941F0080181612068E1
:1007D000816921F004018161206881692A691143DE
:1007E00011E0206801F064FB2068816941F4006138
:1007F00081612068816921F480618161206881695B
:100800002A6941EA0221816171E02068016A21F4CC
:1008100080710162016A4268C369D5F8008023F0E3
:10082000730348EA0303D5F8088021F4007141EA14
:100830000821604518BFB84211D1D5F80CC021F489
:10084000006141EA0C21D5F814C022F4405242EA7A
:100850000C12D5F818C021F4806142EA0C124260F3
:10086000C3616A68C26301622068C16941F008011E
:10087000C1612068C16921F00401C1612068C169BA
:100880002A6941EA020131E02068016A21F48051BD
:100890000162026A4168C369D5F8008023F4E64327
:1008A00043EA0823D5F8088022F4005242EA0832CD
:1008B000604518BFB84205D1D5F814C021F4804175
:1008C00041EA8C114160C361696801640262206879
:1008D000C16941F40061C1612068C16921F480618E
:1008E000C1612068C1692A6941EA0221C161E663E8
:1008F0004FF00000A063BDE8F0810000000001405F
:1009000000040140002804BF0120704710B50446D0
:10091000C06B20B90020A063204600F00BF8022035
:10092000E063211D206801F015FA0120E06300203A
:1009300010BD000008B50068B0F1804F18D0A0F1DC
:100940008041B1F5823118BF08BD0E48016841F001
:10095000020101600068002200F0020000901146D0
:100960002D20FDF79BFEBDE808402D20FDF78ABE37
:100970000548016841F001010160006800F00100D4
:10098000009008BD4438024040380240704710B51E
:1009900004460068012201F041FA2168A1F180407B
:1009A000B0F580301CBFA1F18040B0F5823003D19A
:1009B000486C40F4004048642068016841F001013F
:1009C0000160002010BD10B502680446002904BF74
:1009D000D06840F0020011D0042904BFD06840F074
:1009E00004000BD0082904BFD06840F0080005D0EF
:1009F0000C2904BFD06840F0100000D1D060012263
:100A0000206801F00BFA2068A0F18041B1F5803137
:100A10001CBFA0F18041B1F5823103D1416C41F49A
:100A2000004141642068016841F00101016000203B
:100A300010BD0068A0F18041B1F5005118BF7047AA
:100A4000FDF78CBD836B0022012B04BF0220704791
:100A500001238363002904BF01684A6B0DD0042978
:100A600004BF01688A6B08D0082904BF0168CA6BFB
:100A700003D00C2904BF01680A6C00218163104671
:100A8000704770477047000070B5026804461068F0
:100A9000D168536910F00F0F4FF0200566D003F0B6
:100AA000010C01F490765CEA060C75D010F0010F91
:100AB00018BF11F4807F03D0626C42F001026264BF
:100AC00010F0040F18BF13F0010F03D0626C42F056
:100AD0000202626410F0020F18BF13F0010F03D07E
:100AE000626C42F00402626410F0080F18BF13F049
:100AF000010F03D0626C42F008026264626C002A4B
:100B000008BF70BD10F0200F1EBF11F0200F20464F
:100B100001F0C8FA20684169626CC1F3801112F0DB
:100B2000080F08BF002931D0C16821F49071C1605D
:100B30002068416921F00101416125642068416913
:100B400011F0400F1DD0416921F040014161606BFF
:100B5000B8B132494165606BFDF7B8F9002808BFAC
:100B600070BD606B416DBDE87040084710F0200F0C
:100B700018BF11F0200F0FD02046BDE8704001F0E3
:100B800091BA2046FFF77EFF70BD05E02046FFF7D3
:100B900079FF0020606470BD10F0800F18BF11F065
:100BA000800F2BD0E06B212818BF70BDA068B0F576
:100BB000805F206A16D0411C21622168007848605D
:100BC000E08C401E0004000CE08418BF70BD20685B
:100BD000C16821F08001C1602068C16841F0400116
:100BE000C16070BD0088C0F3080050602069002813
:100BF000206A14BF401C801C2062E1E710F0400F07
:100C000014BF11F0400F70BD2046D16821F04001A3
:100C1000D160E56300F09AF970BD0000B51F0108CE
:100C2000002804BF0120704770B50446C06B002542
:100C300018B92046A56300F01FF82420E06320685F
:100C4000C16821F40051C160204601F06FFA2068AC
:100C5000016921F4904101612068416921F02A0174
:100C600041612068C16841F40051C1606564202081
:100C7000E0632064002070BD2DE9F0430446006865
:100C800087B0A0F18041B1F598411CBF07B0BDE825
:100C9000F08300262E48016841F4002101600068BD
:100CA000022500F4002005900120CDE9000503276E
:100CB000DFF8A090CDE902574FF008086946484692
:100CC000CDF81080FDF728FB01AA009582E8E0012D
:100CD00069464846FDF720FB204D1F484FF000684D
:100CE0002860C5E901860715C5E9036780156E61AF
:100CF000C5E906602E6228466E62FDF7E5F918B177
:100D00007E2117A002F013FF6563EC63194D1848AC
:100D1000C5E900084020C5E90206C5E90476AE61D0
:100D2000EE612E6228466E62FDF7CEF918B18F2172
:100D30000BA002F0FCFE2563002205213420EC63A9
:100D4000FDF7ACFC3420FDF79DFC07B0BDE8F08357
:100D50004038024000000240406002402409002068
:100D60002E2E5C5372635C75736172742E63000087
:100D7000706002408809002037B50446006C82B0DC
:100D80001346202837D1039A002A11BF002B0120D7
:100D900005B030BDA06B01282DD00120A262A06358
:100DA000A3850025656422202064616B13480864D4
:100DB000616B13484864616B12480865606B456558
:100DC0002068011D606BFDF727FA20680168416803
:100DD0000091A563C16841F48071C16020684169D8
:100DE00041F0010141612068416941F040014161E8
:100DF00005B0002030BD05B0022030BD252001081F
:100E000061200108C51F0108704770472DE9F843AC
:100E10000446C06B1E4691460D46202850D1002D39
:100E200012BFB9F1000F0120BDE8F883A06B0128C3
:100E300046D0012000276764A0632120E063FDF70E
:100E400087FBA4F824908046A4F82690E08C30B369
:100E5000E08C401EE084A0684346B0F5805F4FF010
:100E600000024FF080012046009603D001F0FEFA08
:100E700070B11CE001F0FAFAC8B928882168C0F303
:100E8000080048602069002814BF6D1CAD1C03E0F9
:100E9000216815F8010B4860E08C0028D8D1434642
:100EA000002240212046009601F0E0FA10B1032014
:100EB000BDE8F8832020E0630020A763BDE8F88345
:100EC0000220BDE8F883000037B50446C06B202837
:100ED00032D10199002911BF002A012003B030BD91
:100EE000A06B012828D001202162A063A284E284A3
:100EF000002565642120E063236B11481864236B8F
:100F000010485864236B10481865206B13464565DC
:100F1000206800F1040C6246206BFDF77DF9216822
:100F20006FF040000860A5632068416941F08001CE
:100F3000416103B0002030BD03B0022030BD00008D
:100F40006B2001089B200108C51F010801480068AB
:100F500004F0B2BE040000207047FEE7F0B521485F
:100F60008FB01F4901604FF480360024C0E901644E
:100F7000046184611C490462C0E90A140125C4604B
:100F8000C56145610463FCF769FE18B1592117A0DA
:100F900002F0CDFD06270A97CDE90B540AA91148A6
:100FA000FCF7A6FD18B1632110A002F0C0FDCDE949
:100FB00000754FF4801002940890CDE90646CDE903
:100FC0000454694607480394FCF77EFC002804BFDC
:100FD0000FB0F0BD732105A002F0A9FD0FB0F0BD68
:100FE00000200140E80500200100000F2E2E5C5378
:100FF00072635C6164632E630000000070B5234877
:101000008EB0214901604FF480360024C0E90164AC
:101010000461846109050462C1620125C460C5617F
:1010200045614FF0606104638162FCF717FE18B1FF
:101030008D2117A002F07BFD0D20CDE90A050AA93C
:101040000C941248FCF754FD18B1972110A002F03F
:101050006EFD0A20CDE900054FF48010029408903F
:10106000CDE90646CDE90454694608480394FCF7E7
:101070002BFC002804BF0EB070BDA72104A002F015
:1010800056FD0EB070BD000000210140300600206A
:101090002E2E5C5372635C6164632E63000000005B
:1010A00070B523488EB0214901604FF4803600248A
:1010B000C0E9016404618461C9040462C16201255C
:1010C000C460C56145614FF0606104638162FCF7F3
:1010D000C5FD18B1C12117A002F029FD0C20CDE9F2
:1010E0000A050AA90C941248FCF702FD18B1CB219D
:1010F00010A002F01CFD0B20CDE900054FF480107C
:1011000002940890CDE90646CDE9045469460848A2
:101110000394FCF7D9FB002804BF0EB070BDDB219F
:1011200004A002F004FD0EB070BD000000220140DA
:10113000780600202E2E5C5372635C6164632E631C
:101140000000000030B589B00025012105A80595F3
:1011500004F09FFD134C0021206004F0D5FD012117
:1011600006A8069504F095FD6060012107A8079583
:1011700004F08FFDA0600021206804F0C5FD01216E
:1011800008A8089504F085FDE060074890E80F1076
:101190008DE80F100021684604F050FE606209B02F
:1011A00030BD000000000020C49A01082DE9F04184
:1011B0003F4886B00024016841F0040101600168E5
:1011C00001F004010591016841F0800101600168AE
:1011D00001F080010591016841F0010101600168A1
:1011E00001F001010591016841F00201016001680F
:1011F00001F002010591016841F0080101600068F9
:101200002C4E00F00800059001224FF4C0413046FA
:10121000FDF799F900224FF402413046FDF793F9AA
:10122000254F0022B1143846FDF78DF94FF4624086
:1012300000900125CDE90154694630460394FDF73D
:101240006BF81E480426CDE900600220DFF87080AC
:10125000029069464046FDF75FF80C20CDE9000496
:10126000694638460294FDF757F828030090CDE907
:101270000154694638460394FDF74EF8E803CDE97A
:101280000004694640460294FDF746F80096694618
:101290000C48CDE90145FDF73FF800221146082032
:1012A000FDF7FCF90820FDF7EDF906B0BDE8F08187
:1012B00030380240000802400004024000001110D3
:1012C00000000240000C0240124810B510490160B5
:1012D0004FF48271416000214FF40062C0E90212B4
:1012E0000122C0E90412520282611822C0E90721DA
:1012F000416281620A21C162FEF7B2FA002808BF8A
:1013000010BD4F21BDE8104003A002F010BC00004A
:10131000003C0040C00600202E2E5C5372635C73BC
:1013200070692E630000000010B5454894B0434931
:101330000024C0E900146021816042F2D071C0E94C
:1013400003144461FEF740FD18B164213DA002F092
:10135000EEFB4FF480500E900EA93948FEF798FD31
:1013600018B16A2137A002F0E2FB3548FFF7CAFA4C
:1013700018B16F2133A002F0DAFB3148FFF7EDF925
:1013800018B174212FA002F0D2FB2020CDE9120465
:1013900012A92B48FEF7D9FC18B17B2129A002F035
:1013A000C6FB7020CDE900040294039404940594D4
:1013B0000022694622480694FFF7E8F918B1872110
:1013C00020A002F0B4FB042269461D48FFF7DEF9B5
:1013D00018B18C211BA002F0AAFB0822694618480C
:1013E000FFF7D4F918B1912116A002F0A0FB0C224E
:1013F000694613480094FFF733F918B1972111A0FB
:1014000002F095FB4FF4006007904010CDE908040E
:101410001420CDE90A044FF40050CDE90C0407A9CB
:101420000748FEF75FFC18B1A32106A002F07FFB7E
:101430000348FFF7ABF814B010BD000000000140F6
:101440005C0700202E2E5C5372635C74696D2E6302
:101450000000000010B521488AB04FF08041002400
:10146000C0E90014602181604FF48051C0E9031489
:10147000FFF748FA18B1B62119A002F058FB0894FA
:1014800008A916480994FEF760FC18B1BD2114A004
:1014900002F04DFB7020CDE90004022002900822EA
:1014A000694604940D48FFF771F918B1C6210CA0E4
:1014B00002F03DFB41F20100CDE901040C22694636
:1014C0000648FFF763F918B1CD2105A002F02FFB04
:1014D0000248FFF75BF80AB010BD00009C0700202F
:1014E0002E2E5C5372635C74696D2E6300000000E5
:1014F00010B519488CB017490024C0E900144FF604
:10150000FF71C0E9024104610320CDE9000401211B
:1015100002910420CDE90340CDE90541CDE9074022
:1015200069460D48FEF78BFD18B1E9210BA002F0CA
:10153000FEFA0A940AA908480B94FEF706FC002854
:1015400004BF0CB010BDF02104A002F0F0FA0CB002
:1015500010BD000000040040DC0700202E2E5C536C
:1015600072635C74696D2E630000000010B51A4848
:101570008CB018490024C0E900144FF6FF71C0E98F
:10158000024104610320CDE90004012102910420FD
:10159000CDE90340CDE90541CDE9074069460E4854
:1015A000FEF74DFD20B14FF485710CA002F0BFFA9B
:1015B0000A940AA908480B94FEF7C7FB002804BF49
:1015C0000CB010BD40F2111104A002F0B0FA0CB042
:1015D00010BD0000000800401C0800202E2E5C53A7
:1015E00072635C74696D2E630000000010B52748BB
:1015F0008AB02549016053210024C0E901146FF02D
:101600007F41C0E90314FEF7DFFB20B140F2231154
:101610001FA002F08CFA4FF48050049004A91B48DC
:10162000FEF736FC20B140F2291119A002F07FFA32
:101630001648FEF7B6FE20B14FF4977114A002F0E1
:1016400076FA089408A911480994FEF77EFB20B1A8
:1016500040F235110EA002F06AFA0120CDE90040F7
:101660000820CDE902400C2269460848FEF7F2FD49
:10167000002804BF0AB010BD4FF49F7104A002F00F
:1016800056FA0AB010BD0000000C00405C080020B3
:101690002E2E5C5372635C74696D2E630000000033
:1016A00010B5344890B032490024C0E900146021DC
:1016B000816042F2D071C0E903144461FFF722F95E
:1016C00020B140F251112CA002F031FA2020CDE9D6
:1016D0000E040EA92748FEF738FB20B14FF4AC7179
